{
  "contractName": "token",
  "abi": [
    {
      "constant": true,
      "inputs": [
        {
          "name": "value",
          "type": "uint256"
        }
      ],
      "name": "totalSupply",
      "outputs": [
        {
          "name": "",
          "type": "uint256"
        }
      ],
      "payable": false,
      "stateMutability": "view",
      "type": "function"
    },
    {
      "constant": true,
      "inputs": [
        {
          "name": "amount",
          "type": "uint256"
        }
      ],
      "name": "decimals",
      "outputs": [
        {
          "name": "",
          "type": "uint256"
        }
      ],
      "payable": false,
      "stateMutability": "view",
      "type": "function"
    },
    {
      "constant": false,
      "inputs": [
        {
          "name": "value",
          "type": "uint256"
        }
      ],
      "name": "burn",
      "outputs": [
        {
          "name": "result",
          "type": "bool"
        }
      ],
      "payable": false,
      "stateMutability": "nonpayable",
      "type": "function"
    },
    {
      "constant": false,
      "inputs": [
        {
          "name": "amount",
          "type": "uint256"
        },
        {
          "name": "value",
          "type": "uint256"
        }
      ],
      "name": "selltokens",
      "outputs": [
        {
          "name": "result",
          "type": "bool"
        }
      ],
      "payable": false,
      "stateMutability": "nonpayable",
      "type": "function"
    },
    {
      "constant": true,
      "inputs": [
        {
          "name": "newbuyprice",
          "type": "uint256"
        },
        {
          "name": "newsellprice",
          "type": "uint256"
        }
      ],
      "name": "buyprice",
      "outputs": [
        {
          "name": "",
          "type": "uint256"
        }
      ],
      "payable": false,
      "stateMutability": "view",
      "type": "function"
    },
    {
      "inputs": [
        {
          "name": "initialsupply",
          "type": "uint256"
        },
        {
          "name": "symbol",
          "type": "string"
        },
        {
          "name": "name",
          "type": "string"
        },
        {
          "name": "buyPrice",
          "type": "uint256"
        },
        {
          "name": "sellPrice",
          "type": "uint256"
        }
      ],
      "payable": true,
      "stateMutability": "payable",
      "type": "function",
      "constant": false,
      "name": "buytokens",
      "outputs": [
        {
          "name": "result",
          "type": "bool"
        }
      ]
    },
    {
      "payable": false,
      "stateMutability": "view",
      "type": "function",
      "constant": true,
      "inputs": [],
      "name": "tokenName",
      "outputs": [
        {
          "name": "",
          "type": "string"
        }
      ]
    },
    {
      "anonymous": false,
      "inputs": [
        {
          "indexed": false,
          "name": "from",
          "type": "address"
        },
        {
          "indexed": false,
          "name": "to",
          "type": "address"
        },
        {
          "indexed": false,
          "name": "value",
          "type": "uint256"
        }
      ],
      "name": "tokenSymbol",
      "type": "function",
      "constant": true,
      "outputs": [
        {
          "name": "",
          "type": "string"
        }
      ],
      "payable": false,
      "stateMutability": "view"
    },
    {
      "anonymous": false,
      "inputs": [
        {
          "indexed": false,
          "name": "from",
          "type": "address"
        },
        {
          "indexed": false,
          "name": "value",
          "type": "uint256"
        },
        {
          "indexed": false,
          "name": "ttlsupply",
          "type": "uint256"
        }
      ],
      "name": "owner",
      "type": "function",
      "constant": true,
      "outputs": [
        {
          "name": "",
          "type": "address"
        }
      ],
      "payable": false,
      "stateMutability": "view"
    },
    {
      "constant": false,
      "inputs": [
        {
          "name": "to",
          "type": "address"
        },
        {
          "name": "value",
          "type": "uint256"
        }
      ],
      "name": "transfer",
      "outputs": [],
      "payable": false,
      "stateMutability": "nonpayable",
      "type": "function"
    },
    {
      "constant": true,
      "inputs": [],
      "name": "sellprice",
      "outputs": [
        {
          "name": "",
          "type": "uint256"
        }
      ],
      "payable": false,
      "stateMutability": "view",
      "type": "function"
    },
    {
      "constant": true,
      "inputs": [
        {
          "name": "",
          "type": "address"
        }
      ],
      "name": "tokenBalance",
      "outputs": [
        {
          "name": "",
          "type": "uint256"
        }
      ],
      "payable": false,
      "stateMutability": "view",
      "type": "function"
    },
    {
      "constant": false,
      "inputs": [
        {
          "name": "newbuyprice",
          "type": "uint256"
        },
        {
          "name": "newsellprice",
          "type": "uint256"
        }
      ],
      "name": "setPrice",
      "outputs": [
        {
          "name": "result",
          "type": "bool"
        }
      ],
      "payable": false,
      "stateMutability": "nonpayable",
      "type": "function"
    },
    {
      "inputs": [
        {
          "name": "initialsupply",
          "type": "uint256"
        },
        {
          "name": "symbol",
          "type": "string"
        },
        {
          "name": "name",
          "type": "string"
        },
        {
          "name": "buyPrice",
          "type": "uint256"
        },
        {
          "name": "sellPrice",
          "type": "uint256"
        }
      ],
      "payable": false,
      "stateMutability": "nonpayable",
      "type": "constructor"
    },
    {
      "payable": true,
      "stateMutability": "payable",
      "type": "fallback"
    },
    {
      "anonymous": false,
      "inputs": [
        {
          "indexed": false,
          "name": "from",
          "type": "address"
        },
        {
          "indexed": false,
          "name": "to",
          "type": "address"
        },
        {
          "indexed": false,
          "name": "value",
          "type": "uint256"
        }
      ],
      "name": "Transfer",
      "type": "event"
    },
    {
      "anonymous": false,
      "inputs": [
        {
          "indexed": false,
          "name": "from",
          "type": "address"
        },
        {
          "indexed": false,
          "name": "value",
          "type": "uint256"
        },
        {
          "indexed": false,
          "name": "ttlsupply",
          "type": "uint256"
        }
      ],
      "name": "Burn",
      "type": "event"
    }
  ],
  "bytecode": "0x6060604052341561000f57600080fd5b604051610d51380380610d51833981016040528080519060200190919080518201919060200180518201919060200180519060200190919080519060200190919050506012600a0a8502600081905550600054600660003373ffffffffffffffffffffffffffffffffffffffff1673ffffffffffffffffffffffffffffffffffffffff1681526020019081526020016000208190555083600190805190602001906100bb92919061013f565b5082600290805190602001906100d292919061013f565b508160038190555080600481905550600454600354101515156100f457600080fd5b33600560006101000a81548173ffffffffffffffffffffffffffffffffffffffff021916908373ffffffffffffffffffffffffffffffffffffffff16021790555050505050506101e4565b828054600181600116156101000203166002900490600052602060002090601f016020900481019282601f1061018057805160ff19168380011785556101ae565b828001600101855582156101ae579182015b828111156101ad578251825591602001919060010190610192565b5b5090506101bb91906101bf565b5090565b6101e191905b808211156101dd5760008160009055506001016101c5565b5090565b90565b610b5e806101f36000396000f3006060604052600436106100c5576000357c0100000000000000000000000000000000000000000000000000000000900463ffffffff16806318160ddd146100c7578063313ce567146100f057806342966c6814610119578063528af21314610154578063555413f71461018f578063625f9513146101b85780636c02a931146101da5780637b61c320146102685780638da5cb5b146102f6578063a9059cbb1461034b578063bc0940491461038d578063eedc966a146103b6578063f7d9757714610403575b005b34156100d257600080fd5b6100da610447565b6040518082815260200191505060405180910390f35b34156100fb57600080fd5b61010361044d565b6040518082815260200191505060405180910390f35b341561012457600080fd5b61013a6004808035906020019091905050610452565b604051808215151515815260200191505060405180910390f35b341561015f57600080fd5b610175600480803590602001909190505061057c565b604051808215151515815260200191505060405180910390f35b341561019a57600080fd5b6101a261064f565b6040518082815260200191505060405180910390f35b6101c0610655565b604051808215151515815260200191505060405180910390f35b34156101e557600080fd5b6101ed61065a565b6040518080602001828103825283818151815260200191508051906020019080838360005b8381101561022d578082015181840152602081019050610212565b50505050905090810190601f16801561025a5780820380516001836020036101000a031916815260200191505b509250505060405180910390f35b341561027357600080fd5b61027b6106f8565b6040518080602001828103825283818151815260200191508051906020019080838360005b838110156102bb5780820151818401526020810190506102a0565b50505050905090810190601f1680156102e85780820380516001836020036101000a031916815260200191505b509250505060405180910390f35b341561030157600080fd5b610309610796565b604051808273ffffffffffffffffffffffffffffffffffffffff1673ffffffffffffffffffffffffffffffffffffffff16815260200191505060405180910390f35b341561035657600080fd5b61038b600480803573ffffffffffffffffffffffffffffffffffffffff169060200190919080359060200190919050506107bc565b005b341561039857600080fd5b6103a06107cb565b6040518082815260200191505060405180910390f35b34156103c157600080fd5b6103ed600480803573ffffffffffffffffffffffffffffffffffffffff169060200190919050506107d1565b6040518082815260200191505060405180910390f35b341561040e57600080fd5b61042d60048080359060200190919080359060200190919050506107e9565b604051808215151515815260200191505060405180910390f35b60005481565b601281565b600081600660003373ffffffffffffffffffffffffffffffffffffffff1673ffffffffffffffffffffffffffffffffffffffff16815260200190815260200160002054101515156104a257600080fd5b81600660003373ffffffffffffffffffffffffffffffffffffffff1673ffffffffffffffffffffffffffffffffffffffff168152602001908152602001600020600082825403925050819055508160008082825403925050819055507f49995e5dd6158cf69ad3e9777c46755a1a826a446c6416992167462dad033b2a3383600054604051808473ffffffffffffffffffffffffffffffffffffffff1673ffffffffffffffffffffffffffffffffffffffff168152602001838152602001828152602001935050505060405180910390a160019050919050565b60008082600660003373ffffffffffffffffffffffffffffffffffffffff1673ffffffffffffffffffffffffffffffffffffffff16815260200190815260200160002054101515156105cd57600080fd5b60045483029050803073ffffffffffffffffffffffffffffffffffffffff1631101515156105fa57600080fd5b61060533308561086d565b3073ffffffffffffffffffffffffffffffffffffffff166108fc829081150290604051600060405180830381858888f19350505050151561064557600080fd5b6001915050919050565b60035481565b600090565b60028054600181600116156101000203166002900480601f0160208091040260200160405190810160405280929190818152602001828054600181600116156101000203166002900480156106f05780601f106106c5576101008083540402835291602001916106f0565b820191906000526020600020905b8154815290600101906020018083116106d357829003601f168201915b505050505081565b60018054600181600116156101000203166002900480601f01602080910402602001604051908101604052809291908181526020018280546001816001161561010002031660029004801561078e5780601f106107635761010080835404028352916020019161078e565b820191906000526020600020905b81548152906001019060200180831161077157829003601f168201915b505050505081565b600560009054906101000a900473ffffffffffffffffffffffffffffffffffffffff1681565b6107c733838361086d565b5050565b60045481565b60066020528060005260406000206000915090505481565b6000600560009054906101000a900473ffffffffffffffffffffffffffffffffffffffff1673ffffffffffffffffffffffffffffffffffffffff163373ffffffffffffffffffffffffffffffffffffffff1614151561084757600080fd5b818311151561085557600080fd5b82600381905550816004819055506001905092915050565b6000808373ffffffffffffffffffffffffffffffffffffffff161415151561089457600080fd5b81600660008673ffffffffffffffffffffffffffffffffffffffff1673ffffffffffffffffffffffffffffffffffffffff16815260200190815260200160002054101515156108e257600080fd5b600660008473ffffffffffffffffffffffffffffffffffffffff1673ffffffffffffffffffffffffffffffffffffffff16815260200190815260200160002054600660008673ffffffffffffffffffffffffffffffffffffffff1673ffffffffffffffffffffffffffffffffffffffff1681526020019081526020016000205401905081600660008673ffffffffffffffffffffffffffffffffffffffff1673ffffffffffffffffffffffffffffffffffffffff1681526020019081526020016000206000828254039250508190555081600660008573ffffffffffffffffffffffffffffffffffffffff1673ffffffffffffffffffffffffffffffffffffffff16815260200190815260200160002060008282540192505081905550600660008473ffffffffffffffffffffffffffffffffffffffff1673ffffffffffffffffffffffffffffffffffffffff16815260200190815260200160002054600660008673ffffffffffffffffffffffffffffffffffffffff1673ffffffffffffffffffffffffffffffffffffffff168152602001908152602001600020540181141515610a8d57600080fd5b7fddf252ad1be2c89b69c2b068fc378daa952ba7f163c4a11628f55a4df523b3ef848484604051808473ffffffffffffffffffffffffffffffffffffffff1673ffffffffffffffffffffffffffffffffffffffff1681526020018373ffffffffffffffffffffffffffffffffffffffff1673ffffffffffffffffffffffffffffffffffffffff168152602001828152602001935050505060405180910390a1505050505600a165627a7a723058208034820a5fe53fd432e8128ab007728f922a52ec8568cb95ab6d9e7fca634a2f0029",
  "source": "pragma solidity ^0.4.16;\r\n\r\ncontract token{\r\n\r\n    \r\n    uint256 public totalSupply;\r\n    string public tokenSymbol;\r\n    string public tokenName;\r\n    uint256 public constant decimals = 18;\r\n    uint256 public buyprice;\r\n    uint256 public sellprice;\r\n    address public owner;\r\n\r\n    mapping(address => uint) public tokenBalance;\r\n\r\n    event Transfer(address from, address to, uint256 value);\r\n    event Burn(address from, uint256 value, uint256 ttlsupply);\r\n    modifier onlyOwner{\r\n        require(msg.sender == owner);\r\n        _;\r\n    }\r\n\r\n    function token(uint256 initialsupply, string symbol, string name, uint256 buyPrice, uint256 sellPrice) public {\r\n\r\n        totalSupply = initialsupply * 10**decimals;\r\n        tokenBalance[msg.sender] = totalSupply;\r\n        tokenSymbol = symbol;\r\n        tokenName = name;\r\n        buyprice = buyPrice;\r\n        sellprice = sellPrice;\r\n        require(buyprice >= sellprice);\r\n        owner = msg.sender;\r\n    \r\n\r\n\r\n\r\n    }\r\n\r\n    function internalTransfer(address from, address to, uint256 value ) internal {\r\n        require(to != 0x0);\r\n        require(tokenBalance[from] >= value);\r\n        uint256 sumofToken = tokenBalance[from] + tokenBalance[to];\r\n        tokenBalance[from] -= value;\r\n        tokenBalance[to] += value;\r\n        require(sumofToken == tokenBalance[from] + tokenBalance[to]);\r\n        Transfer(from,to,value);\r\n    }\r\n\r\n    function transfer(address to, uint256 value) public {\r\n        internalTransfer(msg.sender,to,value);\r\n    }\r\n\r\n    function burn(uint256 value) public returns (bool result) {\r\n        require(tokenBalance[msg.sender] >= value);\r\n        tokenBalance[msg.sender] -= value;\r\n        totalSupply -= value;\r\n        Burn(msg.sender,value,totalSupply);\r\n        return true;\r\n\r\n    }\r\n\r\n    function setPrice(uint256 newbuyprice, uint256 newsellprice) onlyOwner public returns(bool result) {\r\n        require(newbuyprice > newsellprice);\r\n        buyprice = newbuyprice;\r\n        sellprice = newsellprice;\r\n        return true;\r\n\r\n    }\r\n\r\n    function buytokens() payable public returns(bool result) {\r\n        //require(msg.value <= msg.sender.balance);\r\n        //require(msg.value/buyprice <= tokenBalance[owner]);\r\n        //uint256 amount = msg.value/buyprice;\r\n        //internalTransfer(owner, msg.sender,amount);\r\n        //return true;\r\n        \r\n        }\r\n\r\n    function selltokens(uint256 amount)  public returns(bool result) {\r\n        require(tokenBalance[msg.sender] >= amount);\r\n        uint256 totalValue = amount * sellprice;\r\n        require(this.balance >= totalValue);\r\n        internalTransfer(msg.sender,this,amount);\r\n        this.transfer(totalValue);\r\n        return true;\r\n\r\n\r\n    }\r\n\r\n    function () payable public {\r\n\r\n    }\r\n\r\n    \r\n}\r\n",
  "sourcePath": "C:\\Users\\Nishant\\desktop\\test\\contracts\\token.sol",
  "compiler": {
    "name": "solc",
    "version": "0.4.18+commit.9cf6e910.Emscripten.clang"
  },
  "schemaVersion": "1.0.1",
  "updatedAt": "2017-11-22T10:45:57.439Z"
}